:020000040000FA
:108000009897000099810000918E0000898E0000F1
:108010008D8E0000A1820000A58E000000000000EF
:10802000000000000000000000000000998E000029
:10803000A582000000000000958E00009D8E0000CB
:10804000B3810000B3810000B3810000B381000060
:10805000B3810000B3810000B3810000B381000050
:10806000B3810000B3810000B3810000B381000040
:10807000B3810000B3810000B3810000B381000030
:10808000B3810000B3810000B3810000B381000020
:10809000B3810000B3810000B3810000B381000010
:1080A000B3810000B3810000B3810000B381000000
:1080B000B3810000B3810000B3810000B3810000F0
:1080C000B3810000B3810000B3810000B3810000E0
:1080D000B3810000B3810000B3810000B3810000D0
:1080E000B3810000B3810000B381000000F002F80A
:1080F00000F042F814A696E8000CB244B344DA4506
:1081000001D100F039F8BAE80F000FA696E8300068
:10811000A5EB040504EB0607AAEB0704A7F101078A
:108120004FEA15154FEA3414A4F10104AC4201D30F
:1081300000F022F813F0010F18BFFB1A43F00103FF
:1081400000F001F8DBE71847200F0000300F0000B7
:10815000704700000023002400250026103A28BFA5
:1081600078C1FBD8520728BF30C148BF0B607047A9
:108170001FB51FBD10B510BD00F05DF81146FFF72B
:10818000F7FF00F091FE00F07BF803B4FFF7F2FF79
:1081900003BC00F07FF80000094880470948004709
:1081A000FEE7FEE7FEE7FEE7FEE7FEE7FEE7FEE7A7
:1081B000FEE7FEE704480549054A064B7047000004
:1081C000A18E0000ED8000009891000098970000BB
:1081D00098930000989300004FF0000200B51346FA
:1081E00094469646203922BFA0E80C50A0E80C50D7
:1081F000B1F12001BFF4F7AF090728BFA0E80C5088
:1082000048BF0CC05DF804EB890028BF40F8042B80
:1082100008BF704748BF20F8022B11F0804F18BFED
:1082200000F8012B7047704770477047004870474F
:108230008890000070477546FFF7F8FFAE460500CE
:108240006946534620F00700854618B020B5FFF771
:10825000B1FFBDE820404FF000064FF000074FF09F
:1082600000084FF0000BAC46ACE8C009ACE8C00910
:10827000ACE8C009ACE8C00921F007018D467047A1
:1082800010B50446AFF300802046BDE81040FFF76C
:108290007CBF000001491820ABBEFEE726000200AB
:1082A000FEE7000070470000B0B5044600F020F97A
:1082B000054649F27C00C0F200000078611C18BF3E
:1082C000044400BF00F014F9401BA042FAD3B0BD33
:1082D0002DE9F04F82B00E68002E00F0F78041F2D9
:1082E0000042C4F20102042340F2004E904208BF53
:1082F00003234FF6FF7CC4F2010E009300240123F8
:10830000C1F2100C4FF0000A4FF000094AE041F2B0
:108310000002C4F20102009F904208BF022704F04D
:108320000C030F229A402BEA020207FA03F34FEAEA
:108330009A051A4346F825204E6840F20C45F20291
:10834000DEF8082054BF22EA080242EA0802C4F21A
:108350000105CEF808202A68B30254BF22EA0802B9
:1083600042EA08022A60B303DEF8042054BF22EA7E
:10837000080242EA0802F303CEF80420DEF80020E7
:108380004FF0010354BF22EA080242EA0802CEF885
:1083900000200E680AF1010A36FA0AF204F1040418
:1083A00000F0948003FA0AFB16EA0B08F1D04E683D
:1083B000664511DC122E51D8DFE806F0340A494632
:1083C00050505050505050505050505050424D000E
:1083D000D1F80C9042E000BF4FF6FF72C1F22102CB
:1083E00096420FDC0022C1F2110296421AD00022FE
:1083F000C1F21202964215D00022C1F22102964229
:1084000010D02BE00022C1F2220296420AD00022B4
:10841000C1F23102964205D00022C1F232029642E8
:108420001CD100BF8A6842B1012A14BFC0F814B041
:10843000C0F810B04FF0080910E04FF004090DE04B
:10844000CA6802F1040909E04FF0000906E0CA68B1
:1084500002F1080902E0CA6802F10C090246264648
:10846000B8F5807F24BF0432203E17680F25B54041
:1084700027EA050509FA06F635431560CA79D206DA
:108480007FF587AF41F21803C4F202031A68AEF514
:108490007E7642F001021A601A6802F0010201922F
:1084A000019A2AF0030256F802B040F60002C4F224
:1084B0000102904208D040F60042C4F2010290420C
:1084C0007FF425AF01272AE7002728E702B0BDE89F
:1084D000F08F0000C26802EA0103914341EA0341C0
:1084E00001617047002A08BF09040161704700005C
:1084F00049F29410C0F2000000687047002804BFE1
:1085000001207047F0B581B0044690F83D0028B9CD
:10851000002084F83C00204600F0A8F8242084F8CD
:108520003D002068016821F001010160016841F40B
:1085300000410160016821F40041016000F04CFA43
:10854000636848F2A16CC0F2010C40F60011C0F261
:108550003D0163453CBF48F28041C0F21E018842A4
:1085600002D2012001B0F0BD4DF68361C4F21B318F
:10857000A0FB01122168970CD1F804E04FF4967625
:108580002EF03F0545EA92454D60774348F6381690
:108590000D6AC0F24106A7FB067625F03F0763454A
:1085A00038BF960C721C3A430A62CA6948F2A06648
:1085B0004CF6FF77C0F20106B34222EA070C0AD854
:1085C00001385A00B0FBF2F001306FF31F3004287D
:1085D00098BF042020E0A2681927002A08BF0327BB
:1085E00001385F43B0FBF7F701373F0509D052B1BF
:1085F00019225A43B0FBF2F00422013062F31F301B
:1086000008E0012008E003EB4302B0FBF2F0013088
:108610006FF31F3040F4004040EA0C00C861086866
:10862000D4E9072320F0C00010431843086088688D
:1086300048F2FF3204F10C0790438CCF18431043EB
:10864000A6698860C86820F0FF0038433043C860DE
:10865000086840F00100086000202021206484F8B0
:108660003D10206384F83E0001B0F0BD10B586B027
:10867000016845F20040C4F2000081424FF0000161
:10868000CDE90411CDE9021101D006B010BD41F2CF
:108690001804C4F20204216800F5384041F00801D2
:1086A0002160216801F0080101910199C021029126
:1086B000122103910321059102A9FFF709FE6068C9
:1086C00040F400106060606800F4001001900198B0
:1086D00006B010BD49F27C0049F29411C0F20000CE
:1086E000C0F2000100780A6810440860704700007A
:1086F00080B542F20000C4F20200016841F01001AE
:108700000160032000F07EF80F2000F005F800F073
:108710002BF8002080BD0000B0B549F27C02C0F209
:10872000000249F278011278C0F200014FF47A7326
:108730000968B3FBF2F20446B1FBF2F1084600F01F
:108740008DFB0F2C4FF001050CD858B94FF0FF30BE
:1087500021460022002500F029F849F28000C0F2ED
:10876000000004602846B0BD82B041F21800C4F297
:1087700002000168022241F001010160016801F07C
:10878000010101910199416841F0805141604068C7
:1087900000F08050009000980420C4F201000168AD
:1087A00062F31A61016002B07047000010B54EF626
:1087B0000C5CCEF2000CDCF80030C3F3022E8EF01D
:1087C0000704042C28BF0424BEF103034FF0FF3E2E
:1087D0000EFA04F438BF0023A14399400EFA03F3C4
:1087E0009A43114300F1604200F00F03090102F5C2
:1087F0006442043B6344002848BF03F10C0211703B
:1088000010BD00004EF60C51CEF200010A684FF682
:10881000FF031A4060F30A2242F0806040F0FD70CE
:1088200008607047002804BF012070472DE9F0431D
:1088300081B042F20008C4F202080446D8F80000F1
:108840000D4600F0070081420CD9D8F8000020F056
:1088500007002843C8F80000D8F8000000F007001F
:10886000A8426BD1206841F204098107C4F20209D1
:1088700017D5410705D5D9F8001041F4E061C9F8D2
:108880000010010705D5D9F8001041F46051C9F86E
:108890000010D9F80010A26821F0F0011143C9F8C6
:1088A0000010C00741D1D8F8000000F00700854251
:1088B0000CD2D8F8000020F007002843C8F80000C8
:1088C000D8F8000000F00700A84237D1206841071F
:1088D00007D5D9F80010E26821F4E0611143C9F826
:1088E0000010000708D5D9F80000216920F4605075
:1088F00040EAC100C9F80000D9F8002002F00C00DD
:10890000082841F20020C0F27A0049D149F256030A
:10891000C2F38341C0F20003595CD20334D440F661
:108920000010C0F23D0048433AE0606859F8041C6A
:10893000022807D0012824D1890305D4012001B0E1
:10894000BDE8F0838901F9D5D9F8001021F00301C1
:108950000843C9F80000FFF7CBFD064641F288370F
:10896000D9F80000616800F00C00B0EB810F9AD0DC
:10897000FFF7BEFD801BB842F2D9032001B0BDE86D
:10898000F0838907DAD5DFE7D9F8002049F25403EC
:10899000C2F34042C0F200039A5C4843B0FBF2F0DD
:1089A000D9F8001049F23C02C1F30311C0F20002F1
:1089B000515C49F2780220FA01F149F28000C0F2DC
:1089C00000000068C0F200021160FFF7A5FE002061
:1089D00001B0BDE8F083000049F2780041F20401E3
:1089E000C0F20000C4F202010068096849F24C02BA
:1089F000C1F30221C0F20002515CC8407047000080
:108A0000002804BF012070472DE9F04182B00446E0
:108A1000007841F20006C007C4F2020647D0706831
:108A200000F00C00042808D1306880033FD560684E
:108A3000E8BB012002B0BDE8F081706800F00C00D6
:108A4000082802D17068C003EED4656830682DB183
:108A5000B5F5A02F09D0B5F5803F0AD020F48030BD
:108A60003060306820F4802005E040F480203060E1
:108A7000306840F480303060FFF73AFD002D054645
:108A800012D000BF3068800311D4FFF731FD401BC6
:108A90006428F7D916E100BFFFF72AFD401B6428C0
:108AA0004FF0030000F2D88030688003F4D42078BF
:108AB000800719D5706810F00C0F07D0706800F0AF
:108AC0000C00082827D17068C00324D430688007C0
:108AD00003D52069012840F0A6803068616920F044
:108AE000F80040EAC1003060207800074ED5A06948
:108AF00038B30020C4F242200121C0F88014FFF7EF
:108B0000F7FC0546706A80072DD4FFF7F1FC401B87
:108B10000228F7D9D6E02069002840F20000C4F20C
:108B2000422000F0A88001210160FFF7E1FC05462A
:108B300030688007D1D4FFF7DBFC401B0228F7D94F
:108B4000C0E00020C4F242200021C0F88014FFF7EA
:108B5000CFFC0546706A800718D5FFF7C9FC401B9B
:108B60000228F7D9AEE049F27800C0F200000068B0
:108B700044F6D351C1F26201A0FB0101480A019001
:108B800000BF0198411E00280191F9D120784007CB
:108B900017D4E5698DB1706800F00C00082846D143
:108BA000012D40D07068216A00F480328A423AD1A7
:108BB000616A00F47010884235D1002002B0BDE82F
:108BC000F081F0695FEAC00808D4F06940F0805095
:108BD000F061F06900F080500090009847F20007C3
:108BE000C4F200073868C0050FD4386840F48070BC
:108BF0003860FFF77DFC05463868C00505D4FFF7EF
:108C000077FC401B6428F7D95CE0E568306A1DB149
:108C1000052D41D0012D43D020F001003062306A93
:108C200020F004003EE0012002B0BDE8F081002702
:108C3000C4F2422700203866FFF75AFC022D054691
:108C40000ED100BF3068800153D5FFF751FC401BA7
:108C500002284FF00300F5D902B0BDE8F08100BF53
:108C600030688001A9D5FFF743FC401B02284FF074
:108C70000300F5D9F0E700210160FFF739FC054654
:108C8000306880077FF530AFFFF732FC401B0228C9
:108C90004FF00300F4D9DFE740F004003062306A9F
:108CA00040F001003062FFF723FC002D054641F241
:108CB000883712D0306A800712D4FFF719FC401BA6
:108CC000B842F7D9032002B0BDE8F081FFF710FCED
:108CD000401BB8424FF00300BED8306A8007F5D47D
:108CE000B8F1000F3FF555AFF06920F08050F0610A
:108CF0004FE7206AB0F5803F05D17168A26821F482
:108D00000031114371607168626A21F4741111437A
:108D10000843706001203866FFF7EAFB044600BF95
:108D2000306880013FF549AFFFF7E2FB001B0228E6
:108D30004FF00300F4D98FE770B528B1416A29B12B
:108D400000210161142106E0012070BD4168B1F5E8
:108D5000827F02D01C21002242500026866290F8B9
:108D6000511029B980F85060054600F039F82846BE
:108D7000022180F8511090E82E0002F482720C68F3
:108D800003F4044324F040040C601A4405F4006327
:108D900005691A4405F0020345691A4405F0010308
:108DA0008569C4691A4405F400731A4404F0380351
:108DB000046A1A4404F08003846A1A4304F40053DA
:108DC0001A430A60042202EA15424A60CA6922F480
:108DD0000062CA610121466580F85110304670BDBD
:108DE00070B586B040F60004C4F20104006804F5D2
:108DF0002051002688420596CDE90366029601D0EF
:108E000006B070BD41F21800C4F20200016802AD64
:108E100041F480510160016801F480510191019990
:108E2000016841F0040101600068294600F0040077
:108E300001900198A0200290022003900320059049
:108E40002046FFF745FA4020CDE902062046294694
:108E50000496FFF73DFA06B070BD0000411E0020E9
:108E6000B0EB116F1CBF012070474EF21002CEF222
:108E7000000251604EF62351CEF20001F0230B7038
:108E80000721906011607047FEE70000FEE70000D8
:108E9000FEE700007047000070470000FFF71ABCB3
:108EA00070470000FEE7000090B0FFF721FC06AC21
:108EB00020462821FFF790F90220069001200A9011
:108EC000102000250B9020460595CDE90355CDE9EE
:108ED00001550D95FFF794FD18B1EFF3108072B6B0
:108EE000FEE70F20CDE9010501A80021CDE90355DA
:108EF0000595FFF797FC20B1EFF3108072B600BF25
:108F0000FEE7002741F21800CDE90877CDE90677A2
:108F1000C4F20200016841F2000441F01001016056
:108F20000168C4F2010401F0100101910199016886
:108F3000002241F02001016001684FF4005601F069
:108F4000200101910199016841F00401016001686B
:108F500001F0040101910199016841F008010160EB
:108F600000684FF4005100F008000190019820467D
:108F7000FFF7B8FAA4F5006528461C2100224FF03F
:108F80001C08FFF7AFFA069606AE4FF001094FF046
:108F9000020A20463146CDE90797CDF824A0FFF715
:108FA00097F928463146CDE90689CDE9087AFFF7D9
:108FB0008FF949F23C1004F50051C0F200004FF463
:108FC00082724FF40073082680E886000A21C0E907
:108FD0000377C0E90573C661C0E90877C0E90A7183
:108FE000FFF7AAFE18B1EFF3108072B6FEE749F260
:108FF000E800A4F53C41C0F2000048F2A0624FF442
:109000008043C0F2010280E88600C0E90373C0E932
:109010000577C0E90777FFF771FA28B1EFF3108001
:1090200072B600BFFEE700BF20464FF40051FFF7C5
:1090300051FA4FF4FA70FFF737F9F5E70000000036
:1090400000000000010203040607080900000000F8
:1090500001020304010202030405060708090A0BC2
:109060000C0D0E0F1010000084900000889000007E
:10907000100700005481000000127A000100000077
:0490800010000000DC
:0400000500008199DD
:00000001FF
