:020000040800F2
:10000000C8060020910100088B0F0008430F00086C
:10001000890F0008C5040008F9120008000000005C
:10002000000000000000000000000000991200081D
:10003000C7040008000000008D0F00089B12000894
:10004000AB010008AB010008AB010008AB010008E0
:10005000AB010008AB010008AB010008AB010008D0
:10006000AB010008AB010008AB010008AB010008C0
:10007000AB010008AB010008AB010008AB010008B0
:10008000AB010008AB010008AB010008AB010008A0
:10009000AB010008AB010008AB010008AB01000890
:1000A000AB010008AB010008AB010008AB01000880
:1000B000AB010008AB010008AB010008AB01000870
:1000C000AB010008AB010008AB010008AB01000860
:1000D000AB010008AB010008AB010008AB01000850
:1000E000AB010008AB010008AB01000800F002F80A
:1000F00000F03EF80AA090E8000C82448344AAF184
:100100000107DA4501D100F033F8AFF2090EBAE881
:100110000F0013F0010F18BFFB1A43F0010318473B
:100120001813000038130000103A24BF78C878C1B3
:10013000FAD8520724BF30C830C144BF04680C60ED
:10014000704700000023002400250026103A28BF35
:1001500078C1FBD8520728BF30C148BF0B60704739
:100160001FB59DE8030000F0CFF81FBD10B510BD0E
:1001700000F026F91146FFF7F3FF01F0CFF800F089
:1001800044F903B4FFF7F2FF03BC00F075F9000077
:100190000948804709480047FEE7FEE7FEE7FEE71B
:1001A000FEE7FEE7FEE7FEE7FEE7FEE70448054957
:1001B000054A064B70470000F7120008ED000008E2
:1001C000C8000020C8060020C8020020C802002085
:1001D00070B5064600F07CF8056806F10B0020F0CB
:1001E0000704B4429CBF002070BD2B466A68BAB1B8
:1001F0001068A04210D304F1080188423CBF506847
:10020000586007D35168101941601168091B0160DB
:1002100058601460101D70BD13465268002AE7D163
:100220002146284600F05CF80028DED170BD70B58C
:100230000446051F00F04CF80068002C14BF446809
:1002400070BD002C18BFAC423CBF20466468F8D398
:1002500001680A18AA4218BF456003D12A680546FA
:100260001144016028684119A1421CBF6C6070BD37
:100270006168696021680844286070BD4FF0000221
:1002800000B5134694469646203922BFA0E80C508C
:10029000A0E80C50B1F12001BFF4F7AF090728BF67
:1002A000A0E80C5048BF0CC05DF804EB890028BFE3
:1002B00040F8042B08BF704748BF20F8022B11F00C
:1002C000804F18BF00F8012B704770477047704788
:1002D00000487047700000207047704770477047B3
:1002E00038B504460A4600206946AFF3008000286E
:1002F00008BF38BD02460099204600F03FF80120B3
:1003000038BD012000F054B8F8B5AFF300800546C1
:1003100000200C46102000BF0646A819A0420DD9A7
:10032000324669460020AFF30080070008BF00F0A6
:100330003FF80098A04218BF0546C419FFF7C8FF50
:1003400005600746F01D20F007004619284600F01A
:100350000AF8B44208BFF8BDA21B31463868BDE8B0
:10036000F84000F00BB800210160C0E901107047AF
:10037000102070470048704768000020034640681E
:100380008C46002818BF88423CBF03464068F8D31B
:1003900018681844884207D00CF1030020F00700C9
:1003A000001D411A521A0146081D0A60FFF73FBF9F
:1003B00010B500F039F8BDE8104000F02FB87047D4
:1003C0007546FFF7D7FFAE4605006946534620F055
:1003D0000700854618B020B5FFF7E8FEBDE82040CD
:1003E0004FF000064FF000074FF000084FF0000BF1
:1003F00021F00701AC46ACE8C009ACE8C009ACE8A4
:10040000C009ACE8C0098D46704710B50446AFF38B
:1004100000802046BDE81040FFF7B3BE002801D0A1
:1004200000F02AB87047000010B5012805D000215F
:1004300003A000F027F8012010BD09A1F8E7000093
:1004400053494752544D454D3A204F7574206F66BD
:100450002068656170206D656D6F72790000000025
:100460003A2048656170206D656D6F727920636F09
:10047000727275707465640001491820ABBEFEE7A6
:100480002600020070B505460C460A2000E06D1CEF
:1004900000F011F835B128780028F8D102E0641C8A
:1004A00000F009F814B120780028F8D1BDE87040B8
:1004B0000A20AFF3008008B569468DF800000320DC
:1004C000ABBE08BDFEE7704770B5044600F004F906
:1004D0000546601C02D004480078044400F0FCF893
:1004E000401BA042FAD370BD000000202DE9F84F58
:1004F000DFF8B8910024A9F1040B23460F2709F176
:10050000040AABF1040EC9E00125A5402A40AA4225
:100510007DD1674ED1F804C0ACEB0608B44532D0AB
:1005200014DCBCF1030F3AD009DCBCF1000F2AD077
:10053000BCF1010F1CD0BCF1020F31D11DE0BCF1A8
:10054000110F17D0BCF1120F2AD119E0B8F5881F8E
:1005500019D006DCB8F5803F15D0B8F5801F1FD143
:1005600011E0B8F5001F0ED0B8F5041F18D10AE04D
:10057000CB6815E0CB681B1D12E0CB6808330FE099
:10058000CB680C330CE08B682BB1012B4FF00803C8
:1005900003D0456104E0042302E0056100E000238C
:1005A000FF2A01D8064601E000F104064FEA84055F
:1005B00001D9A5F12005D6F8008007FA05FC28EA44
:1005C0000C0803FA05F548EA0508C6F800804D68EE
:1005D000ED0062D5374DAE6946F00106AE61AD69FA
:1005E00024F0030605F001050095334D06EB050CDC
:1005F000DCF80850A607360F07FA06F825EA0805C2
:10060000DFF8B880404503D14FF0000817E044E020
:10061000DFF8AC80404502D14FF001080FE0DFF871
:10062000A480404502D14FF0020808E0DFF898802E
:10063000404502D14FF0030801E04FF0040808FAEA
:1006400006F848EA0508CCF808804D68D9F800603B
:10065000ED024D4601D5164300E096432E604D68ED
:10066000DAF80060AD02554601D5164300E0964326
:100670002E604D68DBF80060AD035D4601D5164382
:1006800000E096432E604D68DEF80060ED0375468D
:1006900001D5164300E096432E60641C0D682A467F
:1006A000E5407FF431AFBDE8F88F00000804014059
:1006B000000011100010024000000140000801403D
:1006C000000C014000100140001401400AB101611A
:1006D00070470904FBE7000001488068704700008C
:1006E0000000002002488168027811448160704750
:1006F00000000020074810B5016841F010010160BA
:10070000032000F067F80F2000F006F800F024F84E
:10071000002010BD0020024070B50D4D04464FF47E
:100720007A712878B1FBF0F00A490968B1FBF0F062
:1007300000F0F3FB48B9102C07D200222146501ECE
:1007400000F028F800206C6070BD012070BD000032
:10075000000000200C0000200C4808B5816941F021
:1007600001018161816901F001010091C16941F0DC
:100770008051C161C06900F0805000900448416818
:1007800021F0E06141F00071416008BD00100240BD
:1007900000000140F0B40E4B1B680C46C3F302236B
:1007A000C3F10705042D00D90425191D072901D21D
:1007B000002300E0DB1E012606FA05F1491E214058
:1007C00099409E40761E16403143F0BC00F095BD26
:1007D0000CED00E0064900F0070208684FF6FF0341
:1007E000184040EA0220034A1043086070470000A6
:1007F0000CED00E00000FA052DE9F0470F4605007A
:1008000061D0434E306800F00700B84209D230682A
:1008100020F0070038433060306800F00700B8422D
:1008200051D128683B4C810712D5400703D5606839
:1008300040F4E06060602878000703D5606840F409
:10084000605060606068A96820F0F0000843606054
:100850002878C00728D06868012810D021680228AD
:1008600010D0890700292EDA616821F003010143C5
:100870006160FFF731FF804641F288390DE0216861
:100880008903EFE78901EDE7FFF726FFA0EB0801F9
:10089000494502D90320BDE8F0876068696800F027
:1008A0000C00B0EB810FEFD1306800F00700B842C8
:1008B0000BD9306820F0070038433060306800F012
:1008C0000700B84201D00120E5E72878400705D5A8
:1008D0006068E96820F4E0600843606028780007F9
:1008E00006D56068296920F4605040EAC100606064
:1008F00000F018F86168084AC1F30311515CC84060
:100900000649086006480068FFF706FF0020C2E7B6
:100910000020024000100240251400080C000020B6
:10092000040000200E4A51680E4801F00C03042B0D
:1009300011D0082B0FD10C48C1F38343C903C05C0D
:100940000AD55168084AC1F34041921E515C054ADC
:100950005043B0FBF1F07047044948437047000032
:100960000010024000127A001514000800093D0032
:100970002DE9F84F040070D02078C04DC00749D051
:100980006868C0F38100012807D06868C0F381005F
:10099000022809D16868C00306D52868800339D5C4
:1009A00060680028E7D035E06068B0F5803F0BD084
:1009B00010B1B0F5A02F11D0286820F48030286045
:1009C000286820F4802002E0286840F48030286005
:1009D000606890B1FFF780FE06460AE0286840F4A0
:1009E00080202860F0E700BFFFF776FE801B6428B8
:1009F00073D828688003F7D50CE0FFF76DFE064634
:100A000005E000BFFFF768FE801B6428F0D8286867
:100A10008003F7D420789A4E80074FF001094FF0F9
:100A2000000839D5686810F00C0F07D06868C0F36B
:100A30008100022809D16868C00306D428688007AD
:100A400014D52069012808D110E02069B0B1C6F89A
:100A50000090FFF741FE074605E00AE1FFF73CFE84
:100A6000C01B0228C4D828688007F7D528686169A8
:100A700020F0F80040EAC10028600DE0C6F80080D0
:100A8000FFF72AFE074604E0FFF726FEC01B0228F8
:100A900023D828688007F7D4207800072CD5794818
:100AA000A169D9B1C0F80090FFF716FE074604E02F
:100AB000FFF712FEC01B02280FD8686A8007F7D51F
:100AC00071484FF4FA510068B0FBF1F0009000BF9C
:100AD0000098411E0091FAD20EE080E0C0F800803C
:100AE000FFF7FAFD074604E0FFF7F6FDC01B0228FA
:100AF00075D8686A8007F7D42078400760D5E86920
:100B00000027C00008D4E86940F08050E861E86937
:100B1000012700F0805000905C480168C90513D49B
:100B20000168834641F480710160FFF7D5FD82467C
:100B300006E000BFFFF7D0FDA0EB0A0064284ED806
:100B4000DBF80000C005F5D5E06801280AD008B13F
:100B5000052813D0286A20F001002862286A20F0B6
:100B6000040002E0286A40F001002862E06841F2D7
:100B7000883B98B1FFF7B0FD82460BE0286A40F051
:100B800004002862EEE700BFFFF7A6FDA0EB0A0114
:100B900059455AD8286A8007F6D50CE0FFF79CFD26
:100BA000824605E0FFF798FDA0EB0A0159454CD8B5
:100BB000286A8007F6D41FB1E86920F08050E86108
:100BC000E06988B36968C1F38101022944D0022831
:100BD000C6F8608004D0FFF77FFD044638E034E0BB
:100BE000FFF77AFD074604E0FFF776FDC01B0228F9
:100BF0002BD828688001F7D4206AB0F5803F05D152
:100C00006868A16820F4003008436860D4E90801EE
:100C10000843696821F4741108436860C6F860905D
:100C2000FFF75AFD044606E025E000BFFFF754FD3C
:100C3000001B022809D828688001F7D51BE000BFF7
:100C4000FFF74AFD001B022802D90320BDE8F88FF8
:100C500028688001F4D40EE00128F7D06868226A81
:100C600000F48031914204D1616A00F4701088422E
:100C700001D00120EAE70020E8E700000010024070
:100C800000004242800442420C00002000700040FC
:100C900070B5040009D0606A002540B12561656126
:100CA000A56294F8510040B10CE0012070BD60686D
:100CB000B0F5827FF4D0E561F2E784F85050204629
:100CC00000F040F8022084F851002068016821F00B
:100CD00040010160A088218900F4827001F4044180
:100CE0000843A18901F400610843217C01F002015D
:100CF0000843217D01F001010843218B01F40071BB
:100D00000843217F01F03801084394F8201001F0D6
:100D100080010843218D01F40051084321680860D7
:100D2000A069042101EA1040216848602068C16977
:100D300021F40061C1616565012084F85100002043
:100D400070BD000030B585B0002400940194029479
:100D5000039400681449884223D11448816941F4FE
:100D600080518161816901F480510491816941F070
:100D70000401816180690E4D00F004000490A02000
:100D80000090022001900320039069462846FFF757
:100D9000ADFB4020CDE90004694628460294FFF7E8
:100DA000A5FB05B030BD000000300140001002403E
:100DB000000801402DE9F84F984616468A46044639
:100DC000FFF78AFC814694F8510001281ED1BAF140
:100DD000000F73D0002E71D094F85000012815D068
:100DE000012784F85070032084F8510000256565C0
:100DF000C4F830A0A686E686A563A587E587656466
:100E00002564A068B0F5004F03D00CE00220BDE8D7
:100E1000F88F2068016821F04001016020680168B6
:100E200041F48041016020680168490603D40168EB
:100E300041F040010160E068B0F5006F606803D0E8
:100E400048B3012E27D047E008B1012E1FD1206BF7
:100E500021680088C86006E020688168890709D594
:100E6000216B0988C160206B801C2063E08E401ECE
:100E7000E0860CE0FFF730FCA0EB0901414503D30D
:100E8000B8F1FF3F03D035E0B8F1000F32D0E08E6B
:100E90000028E1D123E0206B21680078087306E088
:100EA0002068816889070AD5216B09780173206B56
:100EB000401C2063E08E401EE0860DE02BE0FFF733
:100EC0000BFCA0EB0901414503D3B8F1FF3F03D070
:100ED00010E0B8F1000F0DD0E08E0028E0D14A46B6
:100EE0004146204600F053F808B120206065A06814
:100EF00030B109E084F8517084F85050032086E73F
:100F00002068C1688068009084F8517004F8505FD0
:100F100060680028F3D0012079E710B5401EB0F1D9
:100F2000807F01D3012010BD4FF0E02460610F21CC
:100F3000601700F0E2F90020A06107202061002086
:100F400010BDFEE70F4810B50D4901604FF48271E6
:100F5000416000218160C1604FF400720161C0E90D
:100F600005120822C0E90721416281620A21C1629B
:100F7000FFF78EFE002801D072B6FEE710BD00001C
:100F80000030014010000020FEE7FEE77047F8B592
:100F900015460E460B46009204460122022100F03F
:100FA00011F840B93346002280212046009500F018
:100FB00009F8002804D0606D40F02000606503202F
:100FC000F8BD00002DE9F8431E46914688460446C8
:100FD000089DFFF781FB401B351AFFF77DFB074695
:100FE00025480068C0F3CB30684338E0701C37D028
:100FF000FFF772FBC01BA84203D215B1009860B383
:101000002CE02068416821F0E00141606068B0F5A3
:10101000827F0BD1A068B0F5004F02D0B0F5806F91
:1010200004D12068016821F040010160A06AB0F598
:10103000005F09D12068016821F400510160206837
:10104000016841F400510160012084F85100002042
:1010500084F850000320BDE8F8830025401E00906E
:101060002068816838EA010004D000214945BDD1DB
:101070000020F0E70121F9E70C0000202DE9F04104
:1010800010F8015B044617E0207800F0DDF8607886
:10109000A41C00F0800730F0800604D031462046C2
:1010A00000F0E4F834443FB114F8010BFF2801D1FB
:1010B0004FF4FA70FFF708FA6D1EEDB2E4D2BDE806
:1010C000F08100002DE9F8431F46DDF8208014462A
:1010D0000D460646A0284DD2802D4BD23019401E19
:1010E000A02802DBC6F1A00084B2E819401E8028C7
:1010F00002DBC5F1800087B200F070F8E819401EED
:10110000C3B23019401EC2B2E9B2F0B200F06EF8BC
:101110004FEA18208DF800008DF801806000FFF77D
:1011200057F805460020BDF8001004E005EB40022A
:10113000401C118080B2A042F8D3012204210E4845
:10114000FFF7C4FA4FF6FF7000EA44044FF0FF3691
:1011500007E02246334629460848FFF72BFE7F1E4C
:10116000BFB2002FF5D12846FFF761F8BDE8F8437C
:1011700000F062B8BDE8F8830008014010000020CC
:1011800008B5002100908023A0220846FFF79AFFAF
:1011900008BD000010B500F021F80E4C0022082117
:1011A0002046FFF793FA0520FFF78EF90122082168
:1011B0002046FFF78BFA0848FFF760FF06483B30F0
:1011C000FFF75CFF04484830FFF758FFBDE81040C8
:1011D00000F032B800080140A013000800221021DE
:1011E0000148FFF773BA000000080140F8B5074650
:1011F0001C4615460E462A2000F026F800200090D6
:101200007F1C8DF801706D1C8DF803500421684619
:1012100000F02CF82B2000F017F8B61C8DF80160B8
:10122000A41C8DF803400421684600F01FF82C2010
:1012300000F00AF8F8BD0000012210210148FFF774
:1012400045BA00000008014001B50022042105480C
:10125000FFF73CFA4FF0FF33012269460248FFF7DF
:10126000A9FD08BD000801401000002070B50D4622
:101270000446012204210648FFF728FAAAB22146B3
:10128000BDE870404FF0FF330248FFF793BD000008
:1012900000080140100000207047FFF723BA30B566
:1012A0008FB028216846FEF7E9FF14210AA8FEF74F
:1012B000E5FF01210804CDE9001000240294022575
:1012C0000491CDE90750800009906846FFF750FB74
:1012D00008B172B6FEE70F200A90CDE90B540D94C9
:1012E00000210AA80E94FFF787FA002801D072B6F1
:1012F000FEE70FB030BD7047FEE70907090E002872
:1013000004DB00F1E02080F80014704700F00F00CB
:1013100000F1E02080F8141D7047000086B0FFF750
:10132000E9F9FFF7BCFF00241B48009401940294E4
:101330000394816941F020018161816901F02001FC
:101340000491816941F0040181618069134D00F0CD
:101350000400049000221C212846FFF7B7F91C2046
:1013600000900120CDE9010402200390694628463F
:10137000FFF7BCF8FFF7E6FDFFF70CFF0020FFF7D3
:10138000FFFE4FF478401E23009082220A21184667
:10139000FFF798FEFEE70000001002400008014041
:1013A0000F0180961180FFB103012C2DB203012C97
:1013B0002DB306012C2D012C2DB40107C003A20270
:1013C00084C101C5C2020A00C3028A2AC4028AEE8D
:1013D000C5010E20003601A03A0105022A040000D2
:1013E000007F2B040000007F04E010021C0712376E
:1013F00032292D29252B3900010310E110031D0787
:10140000062E2C292D2E2E373F0000021013800AA5
:10141000298064010202030405060708090A0B0C6F
:101420000D0E0F101000000000000000000102036C
:1014300004060708090000005814000800000020F6
:1014400010000000280100086814000810000020A7
:10145000B806000044010008010000001000000070
:081460000000000000127A00F8
:04000005080000ED02
:00000001FF
